:100000000C9453000C9400000C9400000C9400001D
:100010000C9400000C9400000C9400000C94000060
:100020000C9400000C9400000C9400000C94000050
:100030000C9400000C9400000C9400000C94000040
:100040000C9400000C9400000C9400000C94000030
:100050000C940000202020202020202020202000A0
:100060004F4352303A2000446972656374696F6E81
:100070003A204C6566742000446972656374696F48
:100080006E3A20526967687420004469726563742F
:10009000696F6E3A204272616B65200080C0020079
:1000A00060019C000000F894EE27ECBBF1E0FBBF80
:1000B000EBBFE5BFF8E1F1BDE1BD8DE0A2E0BB27FC
:1000C000ED938A95E9F780E094E0A0E6ED9301973F
:1000D000E9F7EEE9F0E085919591009761F0A5913F
:1000E000B59105901590BF01F00105900D92019713
:1000F000E1F7FB01F0CFEFE5EDBFE4E0EEBFC0E6D6
:10010000D1E00C948300E0E0EBBBEABBE8BBE8E0A5
:10011000E7BBE0E0E5BBE4BBE2BBEFEFE1BBEAE657
:10012000E3BFE0E0E2BFECBFE5BFE4BFE9BFE0E86A
:10013000E8B9E0E0E0BFA0E10E940402EFEFE5BB18
:10014000A3E056D0A0E09A99A1E0A03051F0A0E041
:100150009B99A1E0A03029F0A0E09C99A1E0A030FB
:1001600071F40E9431029A9902C0A1E041D09B999A
:1001700002C0A2E03DD09C9902C0A3E039D0E0E0EB
:10018000EA93A1E00E94A301A4E5B0E00E94E0018F
:10019000E0E0EA93A1E00E94A301A0E6B0E00E94A3
:1001A000E001ECB7F0E0DF014AD0A0E09899A1E0CF
:1001B000A03029F0A0E09999A1E0A030B9F40E9404
:1001C0003102989909C0ECB7EB3F10F0EFEF02C095
:1001D000ECB7EB5FECBF0AC0999908C0ECB7E5300B
:1001E00010F4E0E002C0ECB7E550ECBFABCFFFCFBE
:1001F000AA93E881F0E0E130A0E0FA0739F49098A2
:10020000919A0E94B301A7E6B0E015C0E230A0E0E9
:10021000FA0739F4909A91980E94B301A8E7B0E0E8
:100220000AC0E330A0E0FA0741F4909891980E9448
:10023000B301AAE8B0E00E94E0010C942F02BA9347
:10024000AA932A970E94860200E010E0AE85BF853F
:100250001A97C4F0F8010F5F1F4F0E943502BF01CB
:10026000AE85BF85EAE0F0E00E946A02DB01ED9313
:10027000FC93AE85BF85EAE0F0E00E946502EE8760
:10028000FF87E4CFF8010E943502AE85BF85A083C9
:10029000B183980133239AF0F901DE011496EE0F31
:1002A000FF1FAE0FBF1FEC91E05DAE2F0E94C60195
:1002B00088EC90E00197F1F721503040EBCF0E949D
:1002C0008B0260960895FFE0FA95F1F70895AAB3BE
:1002D000AF70AABBD99AD898F6DFDA9AF4DFA9B33F
:1002E000DA98F1DFDA9AEFDFDA98A7FDF5CF089513
:1002F000A07FAB2BABBBDA9A0E946301DA980E9415
:1003000063010895AA93D998AAB3A76FAABBBBB3F8
:10031000BF70A881EDDFA881A295EADFD99A0C947D
:100320002F02DA9A0E946301E9B3DA980E9463010E
:10033000E07F08950E946301F4DFAE2FF2DFD998C9
:10034000E295EA2B0895AA930E946701E881F0E004
:10035000E05AFE4FE081A981AE0F0E9482015980D0
:100360004880229608950E946701A2E00E948201BF
:100370000E946701ACE00E9482010E946701A1E037
:100380000E948201E0E04E2E5E2E0895AA93EF9324
:10039000FF93A8816894AA3019F0E894571430F0BC
:1003A0004394E0E0EA93A42DCEDF36F053948FDF40
:1003B000D89AA8810E948201FF91EF910C942F029C
:1003C000BA93AA931A93E981FA813196E983FA8361
:1003D0003197E4911E2FE03019F0A12FD7DFF3CF32
:1003E000188123960895AA27BB271197F1F708953E
:1003F000AA93D998AAB3A76FAABBBBB3BF70A881B1
:100400000E947801D99A2BC0AA93DA98D89878805C
:10041000E881E058E0936201E881E054E0936301F1
:100420002BD02AD029D0DFDFA0E2E2DFDCDFA8E298
:1004300027D0A4E025D0A5E823D0AAB3AF70AABBEB
:10044000D99A0E949A01E53011F0E0E008C00E94BC
:100450006701A6E00E9482010E94B301E1E02196BB
:100460000895AAE0B0E00C944402DE011496EE0F69
:10047000FF1FEA0FFB1F08950E94F301A0E3B8CF0E
:100480000E9482010C94F301109639F080ED97E000
:100490000197F1F7A8951197C9F70895F195E1959E
:1004A000F04008950024112490E1AA0FBB1F001C06
:1004B000111C0E1A1F0A18F40E0E1F1E01C0A16097
:1004C0009A9599F7FD01D001089512D0EBDF0EF453
:1004D000E5DF0895E894B7FF04C0A095B0951196A4
:1004E0006894F7FDDBDFDEDFFD010EF4D7DF089552
:1004F000E894F7FF02C0D2DF6894B7FF06C0A0956A
:10050000B095119600F8039400FA08953A932A934F
:100510001A930A9308953B812A81198108810895CD
:00000001FF
